:100000000C942C060C9473060C9473060C947306D3
:100010000C9473060C9473060C9473060C9473067C
:100020000C9473060C9473060C946A200C943D2176
:100030000C94D6170C9473060C9473060C947306E8
:100040000C9473060C9473060C9473060C9473064C
:100050000C9473060C943E180C9473060C9473065F
:100060000C9473060C9473060C9473060C9473062C
:100070000C9473060C9473060C9473060C9473061C
:100080000C9473060C9473060C9473060C9473060C
:100090000C9473060C9473060C9473060C947306FC
:1000A0000C9473060C9473060C94730629001E00BE
:1000B0001F0020002100220023002400250026002C
:1000C0002700380235002A004A0000002B001400E7
:1000D0001A000800150017001D0018000C0012007F
:1000E0001300AE002E0200004C0000003900040096
:1000F0001600070009000A000B000D000E000F009B
:1001000035003400200228004D000000E1003102DB
:100110001C001B000600190005001100100036002D
:1001200037002D00E100520046000000E000E3002F
:10013000E2000000000000002C0000000000500061
:10014000E6000151230251004F00000001003A0077
:100150003B003C003D003E003F00400041004200AB
:1001600043004400450001000100000001000100BF
:100170000100010001000100010001000100010077
:100180000100010001000000010000000100010069
:100190000100010001000100010001000100010057
:1001A0000100010001000100010000000100010048
:1001B0000100010001000100010001000100010037
:1001C000010001000100A90053000000010001002E
:1001D000010000000000000001000000000001001C
:1001E000010001000100AA0001000000010001005F
:1001F00001000100010001000100010001000100F7
:1002000001000100010001000100000001000100E7
:1002100001000100010001000100010001000100D6
:1002200001000100010000000100000001000100C8
:1002300001000100010001000100010001000100B6
:1002400001000100010001000100000001000100A7
:100250000100010001000100010001000100010096
:100260000100010001000100010000000100010087
:10027000010000000000000001000000000001007B
:100280000100010001000100010000000100010067
:100290000100010001000100010001000100010056
:1002A0000100010001000100010000000100010047
:1002B0000100010001000100010001000100010036
:1002C0000100010001000000010000000100010028
:1002D0000100010001000100010001000100010016
:1002E0000100010001000100010000000100010007
:1002F00001000100010001000100010001000100F6
:1003000001000100010001000100000001000100E6
:1003100001000000000000000100000000000100DA
:1003200001000100010001000100000001000100C6
:1003300001000100010001000100010001000100B5
:1003400001000100010001000100000001000100A6
:100350000100010001000100010001000100010095
:100360000100010001000000010000000100010087
:100370000100010001000100010001000100010075
:100380000100010001000100010000000100010066
:100390000100010001000100010001000100010055
:1003A0000100010001000100010000000100010046
:1003B000010000000000000001000000000001003A
:1003C0000100010001000100010000000100010026
:1003D0000100010001000100010001000100010015
:1003E0000100010001000100010000000100010006
:1003F00001000100010001000100010001000100F5
:1004000001000100010000000100000001000100E6
:1004100001000100010001000100010001000100D4
:1004200001000100010001000100000001000100C5
:1004300001000100010001000100010001000100B4
:1004400001000100010001000100000001000100A5
:100450000100000000000000010000000000010099
:100460000100010001000100010000000100010085
:100470000100010001000100010001000100010074
:100480000100010001000100010000000100010065
:100490000100010001000100010001000100010054
:1004A0000100010001000000010000000100010046
:1004B0000100010001000100010001000100010034
:1004C0000100010001000100010000000100010025
:1004D0000100010001000100010001000100010014
:1004E0000100010001000100010000000100010005
:1004F00001000000000000000100000000000100F9
:1005000001000100010001000100000001000100E4
:1005100001000100010001000100010001000100D3
:1005200001000100010001000100000001000100C4
:1005300001000100010001000100010001000100B3
:1005400001000100010000000100000001000100A5
:100550000100010001000100010001000100010093
:100560000100010001000100010000000100010084
:100570000100010001000100010001000100010073
:100580000100010001000100010000000100010064
:100590000100000000000000010000000000010058
:1005A0000100010001000100010000000100010044
:1005B0000100010001000100010001000100010033
:1005C0000100010001000100010000000100010024
:1005D0000100010001000100010001000100010013
:1005E0000100010001000000010000000100010005
:1005F00001000100010001000100010001000100F3
:1006000001000100010001000100000001000100E3
:1006100001000100010001000100010001000100D2
:1006200001000100010001000100000001000100C3
:1006300001000000000000000100000000000100B7
:1006400001000100010001000100000001000100A3
:100650000100010001000100010001000100010092
:100660000100010001000100010000000100010083
:100670000100010001000100010001000100010072
:100680000100010001000000010000000100010064
:100690000100010001000100010001000100010052
:1006A0000100010001000100010000000100010043
:1006B0000100010001000100010001000100010032
:1006C0000100010001000100010000000100010023
:1006D0000100000000000000010000000000010017
:1006E0000100010001000100010000000100010003
:1006F00001000100010001000100010001000100F2
:1007000001000100010001000100000001000100E2
:1007100001000100010001000100010001000100D1
:1007200001000100010000000100000001000100C3
:1007300001000100010001000100010001000100B1
:1007400001000100010001000100000001000100A2
:100750000100010001000100010001000100010091
:100760000100010001000100010000000100010082
:100770000100000000000000010000000000010076
:100780000100010001000100010000000100010062
:100790000100010001000100010001000100010051
:1007A0000100010001000100010000000100010042
:1007B0000100010001000100010001000100010031
:1007C0000100010001000000010000000100010023
:1007D0000100010001000100010001000100010011
:1007E0000100010001000100010000000100010002
:1007F00001000100010001000100010001000100F1
:1008000001000100010001000100000001000100E1
:1008100001000000000000000100000000000100D5
:1008200001000100010001000100000001000100C1
:1008300001000100010001000100010001000100B0
:1008400001000100010001000100000001000100A1
:100850000100010001000100010001000100010090
:100860000100010001000000010000000100010082
:100870000100010001000100010001000100010070
:100880000100010001000100010000000100010061
:100890000100010001000100010001000100010050
:1008A0000100010001000100010000000100010041
:1008B0000100000000000000010000000000010035
:1008C0000100010001000100010000000100010021
:1008D0000100010001000100010001000100010010
:1008E0000100010001000100010000000100010001
:1008F00001000100010001000100010001000100F0
:1009000001000100010000000100000001000100E1
:1009100001000100010001000100010001000100CF
:1009200001000100010001000100000001000100C0
:1009300001000100010001000100010001000100AF
:1009400001000100010001000100000001000100A0
:100950000100000000000000010000000000010094
:100960000100010001000100010000000100010080
:10097000010001000100010001000100010001006F
:100980000100010001000100010000000100010060
:10099000010001000100010001000100010001004F
:1009A0000100010001000000010000000100010041
:1009B000010001000100010001000100010001002F
:1009C0000100010001000100010000000100010020
:1009D000010001000100010001000100010001000F
:1009E0000100010001000100010000000100010000
:1009F00001000000000000000100000000000100F4
:100A000001000100010001000100000001000100DF
:100A100001000100010001000100010001000100CE
:100A200001000100010001000100000001000100BF
:100A300001000100010001000100010001000100AE
:100A400001000100010000000100000001000100A0
:100A5000010001000100010001000100010001008E
:100A6000010001000100010001000000010001007F
:100A7000010001000100010001000100010001006E
:100A8000010001000100010001000000010001005F
:100A90000100000000000000010000000000010053
:100AA00001000100010001000100000012036B00C1
:100AB0006500790062006F00610072006400000050
:100AC000160371006D006B006200750069006C0018
:100AD00064006500720000000403090409026D004F
:100AE000040100A0FA09040000010301010009212A
:100AF000110100012240000705810308000A0904D2
:100B000001000103010200092111010001224D0031
:100B10000705820308000A0904020001030000001F
:100B20000921110100012236000705830308000A8C
:100B30000904030001030000000921110100012242
:100B40003900070584032000011201100100000094
:100B500008EDFE606001000102000105010906A127
:100B600001050719E029E7150025019508750181A0
:100B70000205081901290595057501910295017570
:100B80000391010507190029F71500250195F8754E
:100B9000018102C005010980A1018502160100261C
:100BA00003001A81002A8300751095018100C00599
:100BB0000C0901A1018503160100269C021A0100FF
:100BC0002A9C02751095018100C005010902A1014E
:100BD0000901A1000509190129051500250195053F
:100BE0007501810295017503810105010930093103
:100BF0001581257F95027508810609381581257FA5
:100C0000950175088106050C0A38021581257F9526
:100C10000175088106C0C005010906A10105071973
:100C2000E029E715002501950875018102950175F8
:100C3000088101050819012905950575019102959D
:100C400001750391010507190029FF150026FF0012
:100C5000950675088100C00011241FBECFEFDAE0B1
:100C6000DEBFCDBF04B603FE27C080914E02909137
:100C70004F02A0915002B09151028730904BA74093
:100C8000B04BD1F410924E0210924F0210925002CB
:100C90001092510214BE84B7877F84BF0FB6F894B8
:100CA000A895809160008861809360001092600038
:100CB0000FBEE0E0F8E3099511E0A0E0B1E0E2E06A
:100CC000F9E402C005900D92AC33B107D9F722E0E8
:100CD000ACE3B1E001C01D92AE34B207E1F70E946F
:100CE000B91D0C947F240C94000090E080E00895DE
:100CF0000895089581E00895089581E008950C9481
:100D00007A060E9451102FEF84E39CE0215080402E
:100D10009040E1F700C000000C946318FF920F931D
:100D20001F93CF93DF938C01FC01C081D18180910F
:100D3000760181113FC082818823B9F1CE010E94E2
:100D4000B615F82E682FCE010E945E15BE018F2DBC
:100D50000E94D507EC01B8010E947F06882309F4A0
:100D60004AC0B801CE010E94E609882309F443C0B5
:100D7000C531F0E7DF0718F5C23080E7D80708F083
:100D80004BC0C115E0E7DE0789F1C130D047D1F192
:100D900081E080933E0180933F01C801DF91CF91B4
:100DA0001F910F91FF900C947D06CE010E948C152F
:100DB000F82ECCCFCE010E94B615BE01C9CFCC33E0
:100DC00080E7D80709F4ACC0CD33D04709F7F80164
:100DD0008281882309F4CBC010923F010E94081839
:100DE00090933D0180933C0180E2A7C0F80182818D
:100DF00081110E94810680E0DF91CF911F910F91B8
:100E0000FF900895F80182818823A9F380910E0252
:100E1000816080930E02EFCFF8018281882309F46C
:100E2000BCCF0E946717811102C00E944D170E941B
:100E3000841790E09093400280933F02FE01E350BC
:100E4000F04780913F028160E231F105C8F4E55D31
:100E5000F84F0C942F243D0749074D0751075507BC
:100E600059075D076107650769076D077107750712
:100E700079077D0781078507890780913F02826096
:100E800080933F0280913F020E9488170E94511078
:100E9000B2CF80913F028460F3CF80913F0288609F
:100EA000EFCF80913F028061EBCF80913F02806263
:100EB000E7CF80913F028064E3CF80913F0280685A
:100EC000DFCF80913F028460EACF80913F028E7F26
:100ED000D7CF80913F028D7FD3CF80913F028B7F10
:100EE000CFCF80913F02877FCBCF80913F028F7E13
:100EF000C7CF80913F028F7DC3CF80913F028F7B10
:100F0000BFCF80913F028F77BBCF80913F028B7F15
:100F1000EACF90913F02892F97FB87F98058B0CF95
:100F2000F8018281882361F010923E010E94081826
:100F300090933D0180933C0182E00E94DB0D5BCFEA
:100F400080913E0181110FC080913C0190913D0143
:100F50000E941418883C910530F486E20E94B00C7F
:100F600086E20E948C0D82E00E94E20D44CF8091C7
:100F70003F0181110FC080913C0190913D010E9481
:100F80001418883C910530F487E20E94B00C87E287
:100F90000E948C0D80E2E8CF0C94350A0C94370A3D
:100FA0000C947C060C94D0070895E72FF0E095E0B0
:100FB000899FE00DF11D112484E0EE0FFF1F8A953B
:100FC000E1F7E60FF11DEE0FFF1FE455FF4F85918E
:100FD00094910895FC01EE0FFF1FE455F54F8591A4
:100FE000949108950E94D5070E946509811520E417
:100FF000920708F08DC0811540E3940708F0E8C01F
:10100000803E910508F071C0803C910508F0CCC08D
:10101000883A910580F4853A910508F0CAC081307C
:10102000910509F46EC020F08430910508F069C084
:1010300090E080E008958D3B9105D0F7883A9105C6
:1010400009F404C1893A910509F403C18A3A91056A
:1010500009F402C18B3A910509F401C18C3A91055A
:1010600009F400C18B3B910509F4FFC08C3B91054D
:1010700009F4FEC08D3A910509F4FDC0803B91054D
:1010800009F4FCC08E3A910509F4FBC08F3A910532
:1010900009F4FAC0813B910509F4F9C0823B91053E
:1010A00009F4F8C0833B910509F4F7C0843B91052E
:1010B00009F4F6C0853B910509F4F5C0863B91051E
:1010C00009F4F4C0873B910509F4F3C0883B91050E
:1010D00009F4F2C0893B910509F4F1C08A3B9105FE
:1010E00009F4F0C080E094E408958F3F910509F081
:1010F00048F4803F910508F067C0883E910508F0EC
:1011000097CF0895811520E2920708F05FC00895F7
:10111000811543E5940760F5811522E5920708F0F3
:1011200062C0811541E5940708F058C0811520E59B
:10113000920708F450C09C0154E0369527955A95C3
:10114000E1F7922F9370482F437021E030E002C006
:10115000220F331F4A95E2F73C68392B8695869516
:10116000837040E2849FC0011124822B932B089549
:10117000811545E5940750F4811524E5920708F49C
:1011800046C0982F8827846F906A0895811546E598
:10119000940708F450C09C0130569F7021153041CF
:1011A00008F046CF90620895805C91090E94EA079A
:1011B0000895853A910509F443C0863A910509F0EE
:1011C00042C082E890E40895906508959F70EECF44
:1011D0009927906C08959F70906A0895982F88279A
:1011E000816F906A0895AC014370552721E030E08B
:1011F00002C0220F331F4A95E2F78695869540E29A
:10120000849FC0011124822B932B9C680895AC010C
:101210004370552721E030E002C0220F331F4A956A
:10122000E2F78695869540E2849FC0011124822BC7
:10123000932B9A680895982F882788279F71B2CF9B
:1012400081E890E4089583E890E4089582EE94E4C0
:10125000089589EE94E408958AEE94E4089585EB68
:1012600094E4089586EB94E4089583EB94E4089560
:1012700084EB94E4089587EB94E408958CEC94E473
:1012800008958DEC94E4089583E895E408958AE840
:1012900095E4089582E995E4089584E995E4089534
:1012A00081E296E4089583E296E4089584E296E468
:1012B000089585E296E4089586E296E4089587E22B
:1012C00096E408958AE296E41CCF8238910549F1AC
:1012D000B0F48133910509F45CC048F4893291057A
:1012E00009F452C08A32910509F458C00895853333
:1012F000910509F444C08933910599F00895833E1E
:10130000910531F138F4803E910591F0823E9105CE
:10131000B1F00895863E910511F1873E910541F1A6
:10132000089520913F022370C9F080EE90E0089567
:1013300020913F0220FF12C089E390E008952091A0
:101340003F0222FF0BC024FF2EC090E080E00895F2
:1013500020913F0222FD2AC024FDF7CF089520915D
:101360003F0223FFFBCF24FDF0CF87EE90E00895EE
:1013700020913F0223FFF0CF86EE90E00895209168
:101380003F0225FD16C0089520913F0225FD14C09F
:10139000089520913F0226FD12C0089520913F023A
:1013A00026FD10C0089583EE90E0089582EE90E04F
:1013B000089589E290E0089585E390E008958AE237
:1013C00090E0089581E390E0C9CF08950F931F93B3
:1013D000CF938C01FB018281811106C0C1E08C2F6B
:1013E000CF911F910F910895C0914D01C11125C05A
:1013F0000531104799F70E94E50981E080934D017E
:101400000E94081890934C0180934B011092400168
:101410001092420110924101109244011092430136
:101420001092460110924501109248011092470116
:1014300010924A0110924901D2CF80914B019091B4
:101440004C010E941418883C910540F6809140019F
:10145000E82FF0E0EE0FFF1FEF5BFE4F11830083DC
:101460008F5F80934001C0E0BACF0C9478060C9453
:101470007906CF93DF9385B7806885BF85B780688D
:1014800085BFA3E2B1E048E251E0C1E0D0E08D9138
:10149000E82FE295EF70F0E061A18F709E0101C02E
:1014A000220F8A95EAF7922F9095962391A382A115
:1014B000822B82A34A175B0751F7A3E1B1E061E0F9
:1014C00070E08D91E82FE295EF70F0E041A18F7010
:1014D0009B0101C0220F8A95EAF7922F90959423E1
:1014E00091A382A1822B82A381E0A332B80749F79E
:1014F000109259011092580110924F0110924E0112
:1015000010925B0110925A011092510110925001F9
:1015100010925D0110925C011092530110925201E1
:1015200010925F0110925E011092550110925401C9
:1015300010926101109260011092570110925601B1
:10154000DF91CF910C94CC076F927F929F92AF92D4
:10155000BF92CF92DF92EF92FF920F931F93CF93A0
:10156000DF93CEE4D1E003E211E0EE24E394F12C2A
:10157000BB24B394C880D98019821882D8018D9178
:101580008D01E82FE295EF70F0E091A18F70970147
:1015900001C0220F8A95EAF7892F822B81A382A1AD
:1015A000A22EA0948A2182A3B0EABA95F1F783E132
:1015B000682E81E0782E90E080E0D3017D913D019E
:1015C000472F42954F7050E0DA0190969C904881E9
:1015D00059817F70D70102C0AA0FBB1F7A95E2F72D
:1015E000BD01692109F06FC0B701082E02C0660F66
:1015F000771F0A94E2F7462B572B598348830196AD
:1016000080319105D1F681A18A2181A382A1282B65
:1016100022A388819981C816D90641F0B09262014F
:101620000E94081890936401809363012296B1E0B0
:1016300008321B0709F09ECF80916201882391F147
:1016400080916301909164010E941418069750F1F3
:1016500080914E0190914F019093590180935801D0
:10166000809150019091510190935B0180935A01B8
:10167000809152019091530190935D0180935C01A0
:10168000809154019091550190935F0180935E0188
:101690008091560190915701909361018093600170
:1016A000109262010E94CE0781E0DF91CF911F91DD
:1016B0000F91FF90EF90DF90CF90BF90AF909F90F1
:1016C0007F906F90089570E060E095CFE82FF0E094
:1016D000EE0FFF1FE85AFE4F808191810895089513
:1016E00090936A01809369010895E0916901F091F6
:1016F0006A01309721F00190F081E02D099480E09B
:101700000895E0916901F0916A01309721F002801B
:10171000F381E02D09940895E0916901F0916A0147
:10172000309721F00480F581E02D099408952091EF
:101730006701309168012817390771F090936801AB
:1017400080936701E0916901F0916A01309721F07F
:101750000680F781E02D099408952091650130916C
:1017600066012817390771F090936601809365012F
:10177000E0916901F0916A01309721F00084F185D0
:10178000E02D0994089508950C94C30B0E94FF174F
:101790000E94390A0C94D0185F926F927F928F92B8
:1017A0009F92AF92BF92CF92DF92EF92FF920F93F0
:1017B0001F93CF93DF93CDB7DEB72A970FB6F89478
:1017C000DEBF0FBECDBF0E94A40A9CE6A92E91E009
:1017D000B92E10E000E088248394912C502E802FA5
:1017E0000E94660B7C01F501C190D1905F01C81683
:1017F000D90609F45EC080910E0281FD0E946F0B34
:1018000090E080E0CE24DF243401082E02C0660C74
:10181000771C0A94E2F7960126213721232B09F43D
:1018200043C08E835F82E620F72081E0EF2809F431
:1018300080E088870E9408188160782F9A878987BE
:101840004E815F8168858A850E94860C000F111F7A
:10185000F801E459FE4F80819181682679267182D2
:1018600060820E94531B0E94750B90916B01891737
:10187000B9F10E94750B80936B012A960FB6F8940C
:10188000DEBF0FBECDBFDF91CF911F910F91FF90B3
:10189000EF90DF90CF90BF90AF909F908F907F9010
:1018A0006F905F900C94D20701968031910509F0FA
:1018B000ABCF0F5F1F4F0530110509F08FCF8FEFB2
:1018C00089838A831B820E9408188160782F9D83F8
:1018D0008C8349815A816B818D810E94860CC1CF96
:1018E0002A960FB6F894DEBF0FBECDBFDF91CF9121
:1018F0001F910F91FF90EF90DF90CF90BF90AF902E
:101900009F908F907F906F905F900895CF93DF931B
:10191000CDB7DEB72B970FB6F894DEBF0FBECDBFA5
:101920004F83588769877A878B871E821D8285E05F
:10193000FE013796DE01119601900D928A95E1F72E
:1019400049815A816B817C818D819E812B960FB656
:10195000F894DEBF0FBECDBFDF91CF910C9403137F
:10196000882309F4D8C0823871F40E94750B81FD78
:10197000D2C089E30E9456160E941E1789E30E9476
:1019800093160C941E17833859F40E94750B80FD32
:10199000C2C083E50E9456160E941E1783E5EFCF52
:1019A000843859F40E94750B82FDB5C087E40E940B
:1019B00056160E941E1787E4E2CF9CEF980F913ACB
:1019C00018F40E945616DDCF90E2980F983050F42C
:1019D000877091E001C0990F8A95EAF7892F0E94DC
:1019E000D516CFCF9BE5980F933070F4853A31F040
:1019F000863A39F083E890E00C94970B81E890E008
:101A0000FBCF82E890E0F8CF98E5980F953108F089
:101A100082C0883A09F440C0893A09F440C08A3A41
:101A200009F440C08B3A09F440C08C3A09F440C034
:101A30008B3B09F440C08C3B09F440C08D3A09F45B
:101A400040C0803B09F440C08E3A09F440C08F3A50
:101A500009F440C0813B09F440C0823B09F440C016
:101A6000833B09F440C0843B09F440C0853B09F442
:101A700040C0863B09F440C0873B09F440C0883B26
:101A800009F440C0893B09F440C08A3B09F440C0D6
:101A900090E080E00C94AD0B82EE90E0FBCF89EEFD
:101AA00090E0F8CF8AEE90E0F5CF85EB90E0F2CFB2
:101AB00086EB90E0EFCF83EB90E0ECCF84EB90E00F
:101AC000E9CF87EB90E0E6CF8CEC90E0E3CF8DECB4
:101AD00090E0E0CF83E891E0DDCF8AE891E0DACFD3
:101AE00082E991E0D7CF84E991E0D4CF81E292E01E
:101AF000D1CF83E292E0CECF84E292E0CBCF85E2F9
:101B000092E0C8CF86E292E0C5CF87E292E0C2CFF2
:101B10008AE292E0BFCF0895882309F44BC082384F
:101B200071F40E94750B81FF45C089E30E9456162F
:101B30000E941E1789E30E9493160C941E17833887
:101B400059F40E94750B80FF35C083E50E9456163C
:101B50000E941E1783E5EFCF843859F40E94750B5D
:101B600082FF28C087E40E9456160E941E1787E451
:101B7000E2CF9CEF980F913AF0F290E2980F9830F4
:101B800050F4877091E001C0990F8A95EAF7892F88
:101B90000E94DB16D2CF9BE5980F933020F490E0A3
:101BA00080E00C94970B885A853120F490E080E017
:101BB0000C94AD0B0895882321F00E94D5160C9447
:101BC0001E170895882321F00E94DB160C941E171F
:101BD00008958F929F92AF92BF92DF92EF92FF9201
:101BE0000F931F93CF93DF937C01D62FC72FFC0158
:101BF000058102950F70128111110E94F4160E9446
:101C00004F16D82E882371F0112321F180E28D0F19
:101C1000883000F182E00E9439160E944F1691E050
:101C2000D82ED926EC2FE295EF70F0E0E65EF14F6A
:101C30000C942F242C0E2C0E7C0E7C0EBE0EDA0E75
:101C4000590E590EE50E590E7D0F7D0FF00F590EEE
:101C5000590EF90FD12CE6CF0C2F0F70C07F11F069
:101C60000295007F1123A9F0002359F080E28D0F27
:101C7000883010F0D11109C0802F0E94D5160E9423
:101C80001E178D2F0E94B00C14C0802F0E94E616E4
:101C9000F6CF8D2F0E948C0D002359F080E28D0F1E
:101CA000883010F0D11124C0802F0E94DB160E94D2
:101CB0001E17DD2009F4A4C10E942C1680FDA0C1CE
:101CC000F70112820E9426160E94A214C7010E94E8
:101CD0000C100E942616DF91CF911F910F91FF905B
:101CE000EF90DF90BF90AF909F908F900C94C314B3
:101CF000802F0E94EC16DBCFFC2FFF70BF2EC07F21
:101D0000C03219F0B29480EFB822DD2369F0D130EF
:101D100029F1112369F1002359F0F701858180FF32
:101D2000B0CF8F70858304C0112361F0011104C00E
:101D30008B2D0E94DB0DBDCF8B2D0130D1F70E9482
:101D40000817B7CF011106C00E940B178B2D0E94F8
:101D5000E20DAFCF013009F4ACCFF6CF112321F063
:101D6000063008F0A6CFE4CF053008F0A2CFEECFC2
:101D7000002361F38D2F0E948C0D9BCF8C2F8695B5
:101D80008695837069F0813009F093CF8D2F9C2F59
:101D90009370111102C090E080E00E94AD0B89CFDA
:101DA0008D2F9C2F9370111102C090E080E00E9453
:101DB000970B7FCF8D2F112329F00E945C1A0E9470
:101DC000481B77CF0E94C41AFACF8C2F837009F07A
:101DD00047C011116ECF2D2F229526952770220F07
:101DE000220F6D2F6F70862E912CB12CA12C022EFC
:101DF00004C0880C991CAA1CBB1C0A94D2F760E092
:101E000070E0CB01D4FF0FC06FE070E080E090E0A5
:101E100004C0660F771F881F991F2A95D2F7609517
:101E2000709580959095C695C695C370C23051F057
:101E300080F4682979298A299B29C13071F00E9490
:101E40004B1437CF682979298A299B290E94671466
:101E500030CF0E944B14C501B4010E942F1429CF2A
:101E60008695112311F08C2F8170882309F421CFDE
:101E70002D2F229526952770220F220F6D2F6F7020
:101E8000862E912CB12CA12C022E04C0880C991CFA
:101E9000AA1CBB1C0A94D2F760E070E0CB01D4FF0F
:101EA0000FC06FE070E080E090E004C0660F771F25
:101EB000881F991F2A95D2F7609570958095909507
:101EC000C695C695C370C23051F080F4682979294F
:101ED0008A299B29C13071F00E942515EACE682914
:101EE00079298A299B290E944115E3CE0E94251554
:101EF000C501B4010E940915DCCEE0E2ED0FE53129
:101F000008F062C0F0E0E957F04F0C942F249C0FCA
:101F10009C0F9C0F9C0F9C0F9C0F9C0F9C0F9C0F69
:101F20009C0F9C0F9C0F9C0F9C0F9C0F9C0FA90F4C
:101F3000B70FBE0FC50FCF0FDF708C2F8F7111231E
:101F400021F00E94A2148D2FF4CE0E94C3148D2F75
:101F5000FECE112341F0053008F0ABCE8C2F8F71EF
:101F60000E94E814A6CE063008F0A3CEF7CF8C2F3F
:101F70008F71112339F00E94A2149BCE8C2F8F7188
:101F80001123C9F30E94C31494CE112329F08C2F7E
:101F90008F710E948D148DCE0E9483148ACE1123DE
:101FA00049F0CF718C2F0E94A21463E08C2F0E9405
:101FB00030167FCE81E00E943916023008F479CEC7
:101FC00082E00E94391675CE112329F0011159CEF5
:101FD0008C2F8F71D0CF0111CDCE8C2F8F71D2CF9E
:101FE0004C2F4F706D2FC7010E9475060E94AC13D5
:101FF00060CE4C2F4F706D2FC7010E94D40759CE71
:10200000DF91CF911F910F91FF90EF90DF90BF90E4
:10201000AF909F908F9008950F931F93CF93DF936E
:10202000EC01988189812B813C81232B39F08F3FF2
:1020300019F481E09F3F19F080E001C081E080FD4C
:1020400017C0CE010E948E06882391F068817981A5
:102050008A810E9402168C010E945D150E94241440
:10206000B801CE01DF91CF911F910F910C94E90D32
:10207000DF91CF911F910F9108950E94F4160E9455
:1020800005170E94C7160E941E170E94F51B0E948A
:10209000481B90E080E00E94970B90E080E00C9459
:1020A000AD0B0E94E3160C943D100E94F815E92F29
:1020B000E295EF70E250EE30E0F4F0E0EE59FF4EC2
:1020C0000C942F2470107010791079107B107910F7
:1020D00079107910701070108010791079108010BC
:1020E000803F19F020F4803E20F481E00895843F81
:1020F000E1F380E00895803EC0F3813FD1F7F5CF52
:1021000093FB882780F90895CF93DF9300D000D008
:102110001F92CDB7DEB70F900F900F900F900F90DA
:10212000DF91CF910895CF93DF9300D000D000D0FE
:10213000CDB7DEB726960FB6F894DEBF0FBECDBF83
:10214000DF91CF9108951F93CF93DF93C0917701D3
:1021500016E0809178018C1304C0DF91CF911F911C
:102160000895D0E01C9FF0011D9FF00D1124E75849
:10217000FE4F4081518162817381848195810E94EB
:1021800093102196C770E5CF4091A9015091AA0103
:102190006091AB017091AC018091AD019091AE0165
:1021A0000C9493101F93CF93DF938091AE01807FA7
:1021B000D1F48091AB018823B1F080917701D09167
:1021C0007801B091A901C091AA014091AC01509150
:1021D000AD01A1E0BF3F09F0A0E0BA0160957095A4
:1021E00016E0D81304C0DF91CF911F91089521E02C
:1021F0004115510521F02A2FCF3F09F020E090E052
:1022000020FD38C0189FF001199FF00D1124E758E8
:10221000FE4F21812C132EC020812B132BC0228135
:10222000211128C0238134812417350700F1241B94
:10223000350B283C3105F0F42091AE012F70206160
:102240002093AE0126E0289FF001299FF00D112474
:10225000E258FE4F80818F708061808389EA91E02F
:102260000E940C10DF91CF911F910C94A310260FA8
:10227000371FDFCF01968770B4CFAF92BF92CF9256
:10228000DF92EF92FF920F931F93CF93DF93CDB71F
:10229000DEB761970FB6F894DEBF0FBECDBF8C01DD
:1022A00085E0F801DE011D9601900D928A95E1F717
:1022B000D8014C9111965C9111971296EC90309147
:1022C000A9016091AA018091AC019091AD0121E03A
:1022D000009731F06F3F19F421E03F3F09F020E013
:1022E000B22FB170BB2E20FD80C1F801C380D48015
:1022F000A090AB01AA2009F427C1C816D906D0F1D5
:10230000D601A81BB90BCD01FF24F394883C91059D
:1023100008F0F12C8091AE01982F907FFF2009F4F6
:10232000CAC0911187C0FE2C651329C0341327C081
:10233000E11025C08F7080618093AE010E94C410AF
:1023400089EA91E00E940C108091AE01F80185832A
:102350008F2D61960FB6F894DEBF0FBECDBFDF9113
:10236000CF911F910F91FF90EF90DF90CF90BF9092
:10237000AF900895809590958C0D9D1DC5CF81E0FF
:10238000CD2831F05F3F19F481E04F3F09F080E044
:1023900080FD24C081E08E25F82FF170DF2E80FFB4
:1023A0003FC0809177012091780136E0821318C0F8
:1023B0004D875E878D859E850E94F815292F229571
:1023C0002F70223008F1243030F59F7009F1D801C8
:1023D00015969C91907FE1F4FB2CBACF80E0DCCF86
:1023E00090E0389FF001399FF00D1124E758FE4F1F
:1023F0006181561306C06081461303C062816E116D
:102400000FC001968770D2CF9F7011F0882321F3FF
:10241000805E883008F3C8010E940C10BD2CDCCF10
:10242000EE2009F495CF8091AE0181608093AE01DA
:10243000F12C8ECF651312C0341310C0E1100EC002
:10244000F8018583C8010E940C1086E0F801A9EA12
:10245000B1E001900D928A95E1F741C04D875E870A
:102460008D859E850E945510882309F4C8C0EE20F2
:1024700009F4C5C08091AE01803270F02091A901AD
:102480003091AA0138872F831986DB86CA868C870C
:10249000CE0107960E940C1086E0F801A9EAB1E08F
:1024A00001900D928A95E1F70E94D2100E94C4100B
:1024B000FF24F3944DCF911115C07C2DD98AC88A81
:1024C0006E2D89890E94841089EA91E00E940C1087
:1024D00086E0E9EAF1E0DF011D928A95E9F70E94C2
:1024E000C41036CF651312C0341310C0E1100EC0F3
:1024F000F8018583C8010E940C10E9EAF1E086E04A
:10250000DF011D928A95E9F7FA2C22CF4D875E876D
:102510008D859E850E945510882309F470C0EE2099
:1025200009F46DC08091AE01803208F4B5CF2091DE
:10253000A9013091AA013A8329831B82DD82CC82D2
:102540008E83CE010196A6CFC816D90638F1F601C2
:10255000E81BF90BCF01F12C883C910508F03DC038
:10256000FE2CEE2009F44BC0651326C0341324C0A2
:102570008091AE0180FD17C0982F907FA1F0D80107
:1025800015968C931597903F09F45CCF982F907F08
:10259000905F8F70892B15968C9354CF8095909572
:1025A0008C0D9D1DD8CF86E0F801A9EAB1E001901D
:1025B0000D928A95E1F7CCCE4D875E878D859E85FD
:1025C0000E945510811168CF8091AE018160809387
:1025D000AE01C8010E940C10BBCE7C2DD98AC88ADE
:1025E0006E2D89890E94841073CFEE2041F04D87B3
:1025F0005E878D859E850E94551081114DCFC80143
:102600000E940C1055CF1F93CF93DF93CDB7DEB749
:102610002C970FB6F894DEBF0FBECDBF4F835887FF
:1026200069877A878B879C87CE0107960E943D1128
:10263000882309F442C09F8188852A853B85232B06
:1026400039F08F3F19F481E09F3F19F080E001C01D
:1026500081E080FD08C04F81588569857A858B852A
:102660009C850E94931016E08091770190917801EB
:10267000891709F467C0819FC001112487589E4FB4
:102680000E943D11882309F45DC0E09177011E9FEF
:10269000F0011124E758FE4F40815181628173811E
:1026A000848195810E9493108091770190E001963A
:1026B0008770992780937701D7CF86E0FE01379600
:1026C000DE01119601900D928A95E1F79F81888530
:1026D0002A853B85232B39F08F3F19F481E09F3FFA
:1026E00019F080E001C081E080FDBDCF209178012C
:1026F00030E0C9010196877099274091770148170A
:10270000190699F096E0929FD001939FB00D112485
:10271000A758BE4FFE01319601900D929A95E1F7B0
:10272000809378010E94A3109ECF0E9451101092B6
:1027300078011092770186E0E9EAF1E0DF011D926D
:102740008A95E9F72C960FB6F894DEBF0FBECDBF81
:10275000DF91CF911F910895EF92FF920F931F93F6
:10276000CF93DF938C01892B81F0F12CEE24E3943D
:10277000E8012196F8018491843770F4843008F0E0
:102780005FC08130B1F08230A1F1DF91CF911F9114
:102790000F91FF90EF900895853709F44CC008F42D
:1027A0003DC09CE7980F903780F78F770E948C0D83
:1027B00049C00E5F1F4FFE01849190E2980F983040
:1027C00060F48770FE2D01C0FF0F8A95EAF78F2F06
:1027D0000E94F7160E941E1702C00E94B00C8F2D97
:1027E000815030F2EFE9FFE03197F1F700C00000CF
:1027F000F7CF0E5F1F4FFE01849190E2980F983043
:1028000050F48770FE2D01C0FF0F8A95EAF78F2FD5
:102810000E94FD16DFCF0E948C0DE1CF0E5F1F4F8F
:10282000FE01C491C150D8F28FE99FE00197F1F702
:1028300000C00000F7CF0E5F1F4FFE01F490CFCF16
:102840000E94B00C8E01CBCF08956093E501709388
:10285000E6018093E7019093E8010C943D100F93FB
:102860001F930091E5011091E6012091E70130915D
:10287000E801DC01CB01802B912BA22BB32B8093A1
:10288000E5019093E601A093E701B093E8011F9161
:102890000F910C943D100F931F930091E50110913F
:1028A000E6012091E7013091E801DC01CB018023B2
:1028B0009123A223B3238093E5019093E601A09393
:1028C000E701B093E8011F910F910C943D100F9315
:1028D0001F930091E5011091E6012091E7013091ED
:1028E000E801DC01CB0180279127A227B327809341
:1028F000E5019093E601A093E701B093E8011F91F1
:102900000F910C943D101092E1011092E20110928F
:10291000E3011092E4010C943D1041E050E060E0CE
:1029200070E004C0440F551F661F771F8A95D2F7C9
:102930004093E1015093E2016093E3017093E4015D
:102940000C943D1041E050E060E070E004C0440FA2
:10295000551F661F771F8A95D2F78091E1019091EC
:10296000E201A091E301B091E401842B952BA62B09
:10297000B72B8093E1019093E201A093E301B09320
:10298000E4010C943D1041E050E060E070E004C0D0
:10299000440F551F661F771F8A95D2F740955095B3
:1029A000609570958091E1019091E201A091E30121
:1029B000B091E40184239523A623B7238093E101FA
:1029C0009093E201A093E301B093E4010C943D10D5
:1029D00041E050E060E070E004C0440F551F661F06
:1029E000771F8A95D2F78091E1019091E201A09141
:1029F000E301B091E40184279527A627B7278093A8
:102A0000E1019093E201A093E301B093E4010C94FF
:102A10003D100F931F930091E1011091E20120916D
:102A2000E3013091E401DC01CB01802B912BA22B3F
:102A3000B32B8093E1019093E201A093E301B09363
:102A4000E4011F910F910C943D100F931F9300917F
:102A5000E1011091E2012091E3013091E401DC01F8
:102A6000CB0180239123A223B3238093E101909390
:102A7000E201A093E301B093E4011F910F910C9444
:102A80003D100F931F930091E1011091E2012091FD
:102A9000E3013091E401DC01CB0180279127A227DB
:102AA000B3278093E1019093E201A093E301B093F7
:102AB000E4011F910F910C943D1008959295907F21
:102AC000890F982F977071E001C0770F9A95EAF7F8
:102AD00086958695869525E0829FC001112450E059
:102AE00040E0A62FB0E0FC01E40FF51FE155FE4FDA
:102AF00060819D01042E02C0369527950A94E2F765
:102B00002170219526272723262720834F5F5F4F9B
:102B10004530510541F708959295907F890F982F80
:102B2000977086958695869525E0829FA001112451
:102B300070E060E080E0FA01E60FF71FE155FE4F1C
:102B4000208130E0092E02C0369527950A94E2F7DD
:102B500021703327062E01C0220F0A94EAF7822B38
:102B60006F5F7F4F6530710531F70895BF92CF9247
:102B7000DF92EF92FF920F931F93CF93DF938C011D
:102B8000C090E101D090E201E090E301F090E40117
:102B90008091E5019091E601A091E701B091E801F3
:102BA000C82AD92AEA2AFB2ACFE1D0E0BC2ED701D5
:102BB000C6010C2E04C0B695A795979587950A94E3
:102BC000D2F780FD0EC0219788F7B12C8B2DDF91B5
:102BD000CF911F910F91FF90EF90DF90CF90BF901A
:102BE0000895B8018C2F0E94F207019761F3EECF90
:102BF000CF93DF93EC010E94B615BE01DF91CF9118
:102C00000C94F2071F93CF93DF93EB019091760121
:102C1000992331F0CB01DF91CF911F910C94F815DE
:102C2000882379F0CB010E94B615182F682FCE01AA
:102C30000E945E15BE01812FDF91CF911F910C94F0
:102C4000F207CB010E948C15182FF4CF8091E90177
:102C500085958595859508958091E90187700895FA
:102C600098E0899F90011124622B6093E9010C94F4
:102C7000A2149091E901809589238093E901282F7E
:102C8000277061F4282F082E000C330B92171306BF
:102C900029F08595859585950C94C3140895909198
:102CA000E901977081E009F480E0089590911201A4
:102CB0009923E1F090913F0297FF18C0E82FE69525
:102CC000E695E695EF3139F120910001309101014F
:102CD000E20FF32FF11D877021E030E001C0220FD9
:102CE0008A95EAF78181822B8183089520910001E2
:102CF00030910101F90132969FEF40E05191851723
:102D000051F09F3F19F4511101C0942F4F5F4E3184
:102D1000A9F79F3F09F40895290F311D97FD3A95B2
:102D2000F90182830895909112019923F1F0909115
:102D30003F0297FF1AC0E82FE695E695E695EF313A
:102D400029F12091000130910101E20FF32FF11DD3
:102D5000282F277081E090E001C0880F2A95EAF7BC
:102D6000809591818923818308952091000130917C
:102D70000101F9013296205E3F4F9191891303C002
:102D8000DF0111971C92E217F307B9F7089581E06C
:102D900090E0E0910001F0910101E80FF91F10822D
:102DA000019680329105A9F7089590910D02892B23
:102DB00080930D020895982F909580910D0289239C
:102DC00080930D02089510920D02089590910C02C7
:102DD000892B80930C020895982F909580910C0276
:102DE000892380930C02089510920C02089590910B
:102DF0000B02892B80930B020895982F9095809158
:102E00000B02892380930B02089510920B02089500
:102E10008093EA0108951092EA010895209100013B
:102E200030910101F9013196205E3F4F80E0919190
:102E300091118F5FE217F307D1F70895E091000138
:102E4000F091010180910D028083E0910001F091E9
:102E50000101808190910C02892B8083E091000117
:102E6000F0910101808190910B02892B80839091D8
:102E7000EA01992361F0E0910001F0910101808164
:102E8000892B80830E940E1781111092EA01809194
:102E90000001909101010C94810B6DEE7EEF90E0AA
:102EA00080E00E94692460E082E090E00E94572464
:102EB00060E083E090E00E94572460E084E090E0CE
:102EC0000E94572460E085E090E00C94572490E045
:102ED00080E00E94512421E08D3E9E4F09F020E0C9
:102EE000822F089582E090E00C944924682F82E0BC
:102EF00090E00C94572483E090E00C944924682FD0
:102F000083E090E00C94572484E090E00C944924F2
:102F1000682F84E090E00C9457248091450284301F
:102F200039F110920F0288E190E020E40FB6F89496
:102F3000A895809360000FBE2093600080E00E94FF
:102F4000D20783B7817F846083BF83B7816083BFEB
:102F50007894889583B78E7F83BF0FB6F894A89531
:102F600080916000886180936000109260000FBEC5
:102F7000089508950895CF930E94B9170E94A40A56
:102F80000E94BA17C0E08C2F0E94660B892B31F487
:102F9000CF5FC530C1F780E0CF91089581E0FCCFCD
:102FA0000E9451100E94750B0C94D2071F920F9231
:102FB0000FB60F9211248F939F93AF93BF9380917D
:102FC0000F02811113C080913B0290913C02A091AD
:102FD0003D02B0913E024196A11DB11D80933B027E
:102FE00090933C02A0933D02B0933E02BF91AF91FB
:102FF0009F918F910F900FBE0F901F90189582E0B8
:1030000084BD93E095BD9AEF97BD80936E000895BF
:103010002FB7F89480913B0290913C02A0913D0221
:10302000B0913E022FBF0895CF92DF92EF92FF92B0
:103030000F931F932FB7F89440913B0250913C029D
:1030400060913D0270913E022FBF6A017B01EE2428
:10305000FF248C0130E020E0C016D106E206F30622
:1030600050F0481B590BCA011F910F91FF90EF9030
:10307000DF90CF90089541505109F3CF1F920F92E6
:103080000FB60F9211248F939F93AF93BF938091AC
:103090003B0290913C02A0913D02B0913E0201960C
:1030A000A11DB11D80933B0290933C02A0933D0271
:1030B000B0933E02BF91AF919F918F910F900FBE41
:1030C0000F901F9018950E94EF1FF8942FEF87EA3A
:1030D00091E6215080409040E1F700C0000087E079
:1030E00090EBDC0180934E0290934F02A09350022C
:1030F000B093510288E19CE00FB6F894A8958093B4
:1031000060000FBE90936000FFCFAF92BF92CF924E
:10311000DF92EF92FF920F931F93CF93C0E0CC24E6
:10312000C394D12CE82EF12C8C2F0E94660B5C01ED
:1031300010E000E0C601002E02C0880F991F0A941B
:10314000E2F78A219B21892B99F40F5F1F4F0031F1
:10315000110581F7CF5FC53039F780E0CF911F911E
:103160000F91FF90EF90DF90CF90BF90AF900895B8
:10317000602F7C2F80E00E94D507E816F90629F71A
:1031800081E0ECCFCF93C82F8CE20E948518882372
:1031900021F08C2FCF910C94851880E0CF91089569
:1031A000CF930E946717811102C00E944D17C5E698
:1031B00008C00E94A40A8FE39CE90197F1F700C0C0
:1031C0000000C150B1F789E20E94C2188111EFC01E
:1031D0008AE20E94C21881110E944D1785E00E9468
:1031E000C21881110E9463180E94721780930E0208
:1031F00087E00E94C218882371F08BE10E94C218F8
:10320000882309F4B1C090910E02892F8D7F91FF20
:10321000826080930E0280910E020E9476170E94B7
:10322000841790E09093400280933F0280EE0E94CA
:10323000C218882341F090913F02892F8E7F90FF22
:10324000816080933F0289E30E94C218882341F085
:1032500090913F02892F8D7F91FF826080933F0282
:1032600082EE0E94C218882341F090913F02892F7C
:103270008B7F92FF846080933F0286EE0E94C2188B
:10328000882341F090913F02892F877F93FF8860C8
:1032900080933F0283EE0E94C218882341F09091F0
:1032A0003F02892F8F7E94FF806180933F0285E3E8
:1032B0000E94C218882341F090913F02892F8F7D90
:1032C00095FF806280933F0281E30E94C2188823A9
:1032D00041F090913F02892F8F7B96FF806480930D
:1032E0003F0281E10E94C218882341F090913F0281
:1032F000892F97FB87F9805880933F0280913F0286
:103300000E94881787E20E94C218C82F8EE10E948F
:10331000C2188111C2608FE10E94C2188111C4607D
:1033200080E20E94C2188111C86081E20E94C21826
:103330008111C06182E20E94C2188111C06283E2E1
:103340000E94C2188111C06484E20E94C2188823BE
:1033500041F1C0688C2F0E947F176C2F70E090E0C5
:1033600080E0CF910C9425148EE00E94C21888232F
:1033700039F090910E02892F8B7F92FF846049CFA4
:1033800080E10E94C21890910E02882329F0892FB3
:10339000877F93FF88603DCF892F8E7F90FF81606C
:1033A00038CFC111D7CF0E947B17682FD7CFCF91CD
:1033B00008958091120280FF12C06091050185E09E
:1033C000689FB0011124759567957595679560386C
:1033D0007105A8F561157105A1F1862F089581FF8A
:1033E00009C06091050185E0689FB00111247595C1
:1033F0006795EDCF82FF07C06091050185E0689F6A
:10340000B0011124E4CF209113022223A9F090915E
:1034100004016091050185E0689FB001112429171E
:10342000B0F6269FA001279F500D1124692F70E050
:10343000CA010E941B24CBCF65E070E0CECF8FE79E
:10344000089581E008958091120280FF0CC0609180
:10345000030170E075956795759567956115710520
:1034600049F1862F089581FF06C06091030170E045
:1034700075956795F3CF6091030182FD0BC0909124
:1034800013029923A1F06091020180910301961724
:1034900038F0682F70E06038710500F38FE7089509
:1034A000899FC001112470E00E941B24F4CF61E0C9
:1034B00070E0D7CF81E00895803F31F40E94D919A0
:1034C0008195809316020895813F19F40E94D919BD
:1034D000F8CF823F31F40E94D9198195809315026B
:1034E0000895833F19F40E94D919F8CF893F29F430
:1034F0000E94231A8093170208958A3F21F40E94A4
:10350000231A8195F7CF8B3F31F40E94231A8195BE
:103510008093180208958C3F19F40E94231AF8CF63
:10352000843F31F4809114028160809314020895E5
:10353000853F21F4809114028260F7CF863F21F409
:10354000809114028460F1CF873F21F480911402AE
:103550008860EBCF883F21F4809114028061E5CF31
:103560008D3F31F4809112028160809312020895A0
:103570008E3F21F4809112028260F7CF8F3FB9F71E
:10358000809112028460F1CF803FC1F480911602D5
:1035900087FD109216028091150281110EC0809154
:1035A000160281110AC080911702811106C0809114
:1035B0001802811102C0109213020895813F29F46C
:1035C0008091160218162CF3E6CF90911502823FD7
:1035D00029F497FFE0CF10921502DDCF833F19F455
:1035E0001916CCF3D8CF893F39F4809117021816F9
:1035F00094F610921702CFCF8A3F29F480911702D8
:1036000087FFC9CFF6CF8B3F39F48091180287FF2F
:10361000C2CF10921802BFCF8C3F29F480911802BC
:103620001816BCF3B8CF843F31F4809114028E7F1A
:1036300080931402B0CF853F21F4809114028D7FD6
:10364000F7CF863F21F4809114028B7FF1CF873F23
:1036500021F480911402877FEBCF883F21F4809181
:1036600014028F7EE5CF8D3F31F4809112028E7F60
:103670008093120290CF8E3F21F4809112028D7FB1
:10368000F7CF8F3F09F087CF809112028B7FF0CF69
:1036900084E192E00E948C0B0E9408189093110222
:1036A0008093100208951F93CF93DF9380911002AF
:1036B000909111020E941418AC0190911302209174
:1036C000060130E0911106C0209107018AE0289F91
:1036D000900111244217530780F080911502C09188
:1036E000160210911702D091180281110AC0C1115F
:1036F00078C0111176C0D11174C0DF91CF911F91A4
:1037000008959F3F19F09F5F90931302181624F4B9
:103710000E94D919809315028091150287FF05C078
:103720000E94D9198195809315021C1624F40E94D9
:10373000D919809316028091160287FF05C00E9456
:10374000D91981958093160260911502662331F193
:10375000C0911602CC2311F1062E000C770B880BBA
:10376000990B0E94222323E333E343E35FE30E94A8
:1037700086230E94EA22609315026C2FCC0F770BF0
:10378000880B990B0E94222323E333E343E35FE397
:103790000E9486230E94EA2260931602111624F4E6
:1037A0000E94231A809317028091170287FF05C099
:1037B0000E94231A8195809317021D1624F40E94FB
:1037C000231A809318028091180287FF05C00E9477
:1037D000231A819580931802DF91CF911F910C9449
:1037E000481B9F3F09F08FCFA0CF85E0E4E1F2E0D6
:1037F000DF011D928A95E9F71092130210921202CE
:103800000895809139020895CF93DF9300D01F92DD
:10381000CDB7DEB79C0180914502843019F593E065
:1038200099833B832A839093E9008FEF9091E8007E
:10383000815095FD06C095ED9A95F1F70000811134
:10384000F5CF8091E80085FF0DC050E040E063E0D7
:1038500070E0CE0101960E945F1E8091E8008E7795
:103860008093E8000F900F900F90DF91CF91089513
:10387000CF93DF9300D01F92CDB7DEB720914502E2
:10388000243031F522E02983805891099B838A8373
:1038900083E08093E9008FEF9091E800815095FDDF
:1038A00006C095ED9A95F1F700008111F5CF809152
:1038B000E80085FF0DC050E040E063E070E0CE011D
:1038C00001960E945F1E8091E8008E778093E80049
:1038D0000F900F900F90DF91CF9108959C018091F0
:1038E00045028430F9F482E08093E9009FEF8091F3
:1038F000E800915085FD06C085ED8A95F1F700003E
:103900009111F5CF8091E80085FF0CC050E040E0B8
:1039100065E070E0C9010E945F1E8091E8008E772B
:103920008093E8000895CF93DF93EC0180914502E6
:103930008430F1F4909112019923E9F090913F02C3
:1039400097FF19C08093E9008FEF9091E8008150B4
:1039500095FD06C095E19A95F1F700008111F5CF2C
:103960008091E80050E040E060E270E085FD1AC020
:10397000DF91CF91089581E08093E9008FEF9091DE
:10398000E800815095FD06C095ED9A95F1F700008D
:103990008111F5CF8091E80085FFEACF50E040E04B
:1039A00068E070E0CE010E945F1E8091E8008E7793
:1039B0008093E80080E2FE01A9E1B2E001900D925F
:1039C0008A95E1F7D5CF80914402811109C00E9408
:1039D000EF1F0E944C208091E20084608093E200FF
:1039E0000895109244020895089508950C94D017F4
:1039F00042E061EC81E00E946D1F42E061EC82E0F8
:103A00000E946D1F42E061EC83E00E946D1F42E264
:103A100061EC84E00C946D1F80914702833009F4BF
:103A200055C030F4813071F1823009F491C00895AD
:103A30008A3009F47DC08B3009F463C0893009F005
:103A400044C080914602813209F03FC080914A0211
:103A500090914B02009711F00397B9F58091E8001F
:103A6000877F8093E8008091E80082FF2AC08091E0
:103A7000F100809339028091E8008B778093E80011
:103A80000C94A11F80914602813AF9F48091E800DC
:103A9000877F8093E80080914A0290914B02892BA6
:103AA00061F460E289E192E070E00E94AE1E8091D4
:103AB000E8008B778093E800089560E090E080E074
:103AC000F3CF809145028111CECF089580914602B7
:103AD000813AD9F780914A0290914B02892BA9F73C
:103AE0008091E800877F8093E8008091E80080FF64
:103AF000FCCF809112018093F1008091E8008E77D5
:103B0000BDCF80914602813201F780914A029091A7
:103B10004B02892BD1F68091E800877F8093E800E3
:103B20000E94A11F80914802809312010C945110B1
:103B300080914602813249F68091E800877F809328
:103B4000E8000E94A11F8091490280933A020895E3
:103B500080914602813A09F0B8CF8091E800877FD2
:103B60008093E8008091E80080FFFCCF80913A02CA
:103B7000C2CF84B7877F84BF0FB6F894A895809191
:103B80006000886180936000109260000FBE80E842
:103B900080936100109261000E94C40B0E94EF1F8D
:103BA0000E944C208091E20084608093E20078942F
:103BB0000E94CE220E94C60B88E091E00E94700B0A
:103BC00080914502853019F00E94CC0BF9CF0E94FC
:103BD0008D1780914302882399F30E94BB17882395
:103BE00079F30E94491EECCF292F3327233031056A
:103BF00079F158F421303105F1F02230310519F115
:103C000090E080E030E020E01AC02132310599F1E7
:103C100022323105A9F7643098F770E0FB01EE0F0E
:103C2000FF1FE45DFE4F20813181685D7E4FFB0107
:103C3000808190E004C082E190E029E43BE0FA0159
:103C40003183208308958DE690E02CED3AE0F7CFA4
:103C500099278130910561F028F0029789F6ECEA06
:103C6000FAE002C0E8EDFAE0849190E09F01E7CF2E
:103C7000E0ECFAE0F9CF643008F0C2CFE62FF0E0D4
:103C8000EE0FFF1FEC5CFE4F2081318189E090E058
:103C9000D6CF80E189BD82E189BD09B400FEFDCFA8
:103CA0008091D8008F7D8093D8008091E000826061
:103CB0008093E0008091E00081FDFCCF0895AF92F9
:103CC000BF92CF92DF92FF920F931F93CF93DF9318
:103CD0006C01EB018A010E94C01FF82E811123C0E4
:103CE0000115110539F0F80180819181C81BD90BAC
:103CF000C80ED91EB12CA12C2097A9F08091E80004
:103D000085FD22C08091E8008E778093E800011540
:103D10001105A1F0F80180819181A80EB91EB18230
:103D2000A08285E0F82E8F2DDF91CF911F910F910A
:103D3000FF90DF90CF90BF90AF9008950E94C01F7A
:103D40008823D1F2F82EEFCFF60181916F01809395
:103D5000F1002197FFEFAF1ABF0ACECFFC0180918F
:103D60004C0290914D0286179707A0F061157105DE
:103D700029F49091E8009E779093E80090E0611517
:103D8000710551F4911108C08091E80082FF35C09F
:103D900080E00895BC01F2CF809145028823C9F1EB
:103DA0008530C9F18091E80083FD31C08091E80041
:103DB00082FDEACF8091E80080FFE1CF2091F300FF
:103DC0008091F200322F282F6115710519F02830EB
:103DD000310558F091E02830310509F090E020914C
:103DE000E8002E772093E800CACF81918093F100FC
:103DF000615071092F5F3F4FE7CF809145028823C3
:103E000041F0853041F08091E80083FFBDCF81E033
:103E1000089582E0089583E00895FC0180914C02AA
:103E200090914D0286179707A0F06115710529F44E
:103E30008091E8008E778093E80090E0611571052D
:103E400051F4911108C08091E80082FF36C080E0F3
:103E50000895BC01F2CF809145028823D1F18530CD
:103E6000D1F18091E80083FD32C08091E80082FDAD
:103E7000EACF8091E80080FFE1CF2091F3008091AC
:103E8000F200322F282F6115710519F02830310505
:103E900058F091E02830310509F090E08091E80079
:103EA0008E778093E800CACF84918093F100319699
:103EB000615071092F5F3F4FE6CF80914502882303
:103EC00041F0853041F08091E80083FFBCCF81E074
:103ED000089582E0089583E00895982F973028F0A0
:103EE0008F708093E90081E008959093E900242F7A
:103EF000762F50E0981731F07091EC002091ED0092
:103F00005091F00021FD02C09F5FE8CF3091EB009F
:103F10003E7F3093EB003091ED003D7F3093ED001C
:103F20003091EB0031603093EB007093EC00209304
:103F3000ED005093F0002091EE0027FDE5CF80E0EA
:103F400008958091460287FF13C08091E80082FFA8
:103F500006C08091E8008B778093E80004C08091D0
:103F600045028111F2CF0895809145028823D9F34B
:103F70008091E80080FFF8CF8091E8008E77ECCF49
:103F80002091E4003091E50085E69091EC0090FFEF
:103F900006C09091E80090FF06C080E008959091DF
:103FA000E80092FDFACF90914502992391F0953067
:103FB00091F09091EB0095FD10C04091E40050917C
:103FC000E5002417350709F381509A01F1F684E0E2
:103FD000089582E0089583E0089581E008950E94A5
:103FE0005D200E946520E0EEF0E0808181608083AA
:103FF000E8EDF0E080818F77808319BCA7EDB0E019
:104000008C918E7F8C9380818F7E8083109244026E
:1040100008950F931F93CF93DF930E945D200E941A
:104020006520C8EDD0E088818F778883888180689B
:10403000888388818F7D888319BC109245021092F5
:104040004102109243021092420200EE10E0F80189
:1040500080818B7F808388818160888342E060E0FB
:1040600080E00E946D1FE1EEF0E080818E7F808312
:10407000E2EEF0E0808181608083808188608083CF
:10408000F80180818E7F8083888180618883DF91C1
:10409000CF911F910F910895E8EDF0E080818F7E20
:1040A0008083E7EDF0E080818160808384E082BFDF
:1040B00081E0809344020C940920E8EDF0E08081D7
:1040C0008E7F80831092E20008951092DA001092A1
:1040D000E10008951F920F920FB60F9211242F93B3
:1040E0003F934F935F936F937F938F939F93AF9380
:1040F000BF93EF93FF938091E10082FF0BC080910B
:10410000E20082FF07C08091E1008B7F8093E10095
:104110000E94CD228091DA0080FF19C08091D800E2
:1041200080FF15C08091DA008E7F8093DA00809145
:10413000D90080FF94C080E189BD82E189BD09B4C6
:1041400000FEFDCF81E0809345020E94E31C809138
:10415000E10080FF19C08091E20080FF15C08091CE
:10416000E2008E7F8093E2008091E2008061809384
:10417000E2008091D80080628093D80019BC85E06D
:10418000809345020E94F51C8091E10084FF29C0C4
:104190008091E20084FF25C080E189BD82E189BD74
:1041A00009B400FEFDCF8091D8008F7D8093D800A8
:1041B0008091E1008F7E8093E1008091E2008F7E0C
:1041C0008093E2008091E20081608093E200809120
:1041D0004102882309F449C084E0809345020E948B
:1041E000F61C8091E10083FF29C08091E20083FFEB
:1041F00025C08091E100877F8093E10082E0809379
:104200004502109241028091E1008E7F8093E1008F
:104210008091E2008E7F8093E2008091E2008061D5
:104220008093E20042E060E080E00E946D1F809198
:10423000F00088608093F0000E94F41CFF91EF91E1
:10424000BF91AF919F918F917F916F915F914F91AE
:104250003F912F910F900FBE0F901F90189519BC92
:10426000109245020E94F11C72CF8091E30087FDFD
:1042700002C081E0B2CF83E0B0CF1F920F920FB6A1
:104280000F9211242F933F934F935F936F937F93DC
:104290008F939F93AF93BF93CF93EF93FF93C0916F
:1042A000E900CF708091EC001092E9008091F0005D
:1042B000877F8093F00078940E9479211092E90022
:1042C0008091F00088608093F000C093E900FF9136
:1042D000EF91CF91BF91AF919F918F917F916F910E
:1042E0005F914F913F912F910F900FBE0F901F90B4
:1042F00018951F93CF93DF93CDB7DEB7AA970FB66C
:10430000F894DEBF0FBECDBFE6E4F2E08091F1008D
:10431000819322E0EE34F207C9F70E940C1D8091D0
:10432000E80083FF42C080914602909147029A3094
:1043300008F03BC0E92FF0E0E056FE4D0C942F242E
:10434000AA21CE21D521CE21D52129224B22D5212A
:10435000A022AD22803879F0823839F580914A0266
:104360008F708093E9008091EB0085FB882780F9AE
:104370001092E90006C0809142029091430291118F
:1043800082609091E800977F9093E8008093F1001D
:104390001092F1008091E8008E772DC0282F2D7F9C
:1043A00021F48823D1F0823059F18091E80083FF15
:1043B0000AC08091E800877F8093E8008091EB003D
:1043C00080628093EB00AA960FB6F894DEBF0FBE12
:1043D000CDBFDF91CF911F91089580914802813028
:1043E00021F7933009F080E0809343021092E900B6
:1043F0008091E800877F8093E8000E94A11FD5CFBD
:10440000809148028111F2CF80914A028F7069F247
:104410008093E9002091EB0020FFE8CF933031F446
:104420008091EB0080628093EB00E0CF9091EB00F5
:1044300090619093EB0021E030E001C0220F8A955B
:10444000EAF72093EA001092EA008091EB0088607E
:10445000EACF8111AACF109148021F778091E30023
:104460008078812B8093E3008091E800877F8093A0
:10447000E8000E94A11F8091E80080FFFCCF80919E
:10448000E30080688093E30083E0111101C082E0C3
:10449000809345028ACF8058823008F086CF809181
:1044A0004802909149028C3D23E09207A1F583E0F8
:1044B0008A838AE289834FB7F894DE01139620E05D
:1044C0003EE051E2E32FF0E050935700E49120FFEB
:1044D00003C0E295EF703F5FEF708E2F90E0EA30FF
:1044E000C0F0C7968D939D932F5F243159F74FBF2E
:1044F0008091E800877F8093E8006AE270E0CE0157
:1045000001960E94AE1E8091E8008B778093E800B0
:104510004CCFC096E7CFAE014F5F5F4F60914A022C
:104520000E94F41DBC01892B09F43FCF9091E80053
:10453000977F9093E80089819A810E940D1FE3CFB5
:10454000803809F032CF8091E800877F8093E800BF
:10455000809141028093F1001DCF811126CF90916F
:104560004802923008F021CF8091E800877F809345
:10457000E800909341020E94A11F8091410288238C
:1045800031F084E0809345020E94F81C0ECF8091A8
:10459000E30087FDF6CF81E0F5CF0895CF938091BA
:1045A0004502882399F0C091E900CF708091EC001A
:1045B00080FD0EC080E0C82B1092E9008091E800D9
:1045C00083FD0E947921CF70C093E900CF910895B7
:1045D00080E8F1CF0E94F1226894B1110C948023FD
:1045E00008950E94652388F09F5798F0B92F992766
:1045F000B751B0F0E1F0660F771F881F991F1AF0CE
:10460000BA95C9F714C0B13091F00E947F23B1E090
:1046100008950C947F23672F782F8827B85F39F08F
:10462000B93FCCF3869577956795B395D9F73EF466
:1046300090958095709561957F4F8F4F9F4F08950E
:10464000E89409C097FB3EF490958095709561952C
:104650007F4F8F4F9F4F9923A9F0F92F96E9BB27E2
:104660009395F695879577956795B795F111F8CF5E
:10467000FAF4BB0F11F460FF1BC06F5F7F4F8F4FC9
:104680009F4F16C0882311F096E911C0772321F0BF
:104690009EE8872F762F05C0662371F096E8862F57
:1046A00070E060E02AF09A95660F771F881FDAF7AE
:1046B000880F9695879597F9089557FD9058440F60
:1046C000551F59F05F3F71F04795880F97FB991F71
:1046D00061F09F3F79F0879508951216130614062E
:1046E000551FF2CF4695F1DF08C0161617061806BB
:1046F000991FF1CF86957105610508940895E89496
:10470000BB2766277727CB0197F908950E94992345
:104710000C940A240E94FC2338F00E94032420F009
:10472000952311F00C94F3230C94F92311240C9489
:1047300080230E945D2370F3959FC1F3950F50E095
:10474000551F629FF001729FBB27F00DB11D639F43
:10475000AA27F00DB11DAA1F649F6627B00DA11DE9
:10476000661F829F2227B00DA11D621F739FB00D8F
:10477000A11D621F839FA00D611D221F749F3327FF
:10478000A00D611D231F849F600D211D822F762F98
:104790006A2F11249F5750409AF0F1F088234AF075
:1047A000EE0FFF1FBB1F661F771F881F91505040E1
:1047B000A9F79E3F510580F00C94F3230C948023BD
:1047C0005F3FE4F3983ED4F3869577956795B79568
:1047D000F795E7959F5FC1F7FE2B880F911D969582
:1047E000879597F9089597F99F6780E870E060E0F2
:1047F00008959FEF80EC089500240A94161617067A
:1048000018060906089500240A94121613061406C1
:1048100005060895092E0394000C11F4882352F024
:10482000BB0F40F4BF2B11F460FF04C06F5F7F4FDC
:104830008F4F9F4F089597FB072E16F4009407D0D3
:1048400077FD09D00E94352407FC05D03EF49095F1
:1048500081959F4F0895709561957F4F0895EE0F54
:10486000FF1F0590F491E02D0994AA1BBB1B51E199
:1048700007C0AA1FBB1FA617B70710F0A61BB70BD0
:10488000881F991F5A95A9F780959095BC01CD0175
:104890000895F999FECF92BD81BDF89A992780B508
:1048A0000895A8E1B0E042E050E00C947124262F76
:1048B000F999FECF92BD81BDF89A019700B4021616
:1048C00039F01FBA20BD0FB6F894FA9AF99A0FBEC4
:1048D00008950196272F0E9458240C945724DC0138
:1048E000CB01FC01F999FECF06C0F2BDE1BDF89AFB
:1048F000319600B40D9241505040B8F70895F894A5
:02490000FFCFE7
:10490200EB012808140A321E011C931C6E1C381C71
:10491200041C01F1F090919293666737333231971C
:1049220034359636F7F6F5F4404D3639170CCA0B86
:0C493200940B5B0BEE0A070B200B390BFB
:00000001FF
